:020000040800F2
:100000000004002047010008F5030008F70300087A
:10001000FB030008FF0300080304000800000000C1
:1000200000000000000000000000000007040008BD
:1000300009040008000000000B0400080D0400087B
:1000400067010008670100086701000867010008F0
:1000500067010008670100086701000891040008B3
:1000600067010008670100086701000867010008D0
:1000700067010008670100086701000867010008C0
:1000800067010008670100086701000867010008B0
:1000900067010008670100086701000867010008A0
:1000A0006701000867010008670100086701000890
:1000B000670100085F0600084104000867010008A6
:1000C0006701000867010008670100086701000870
:1000D000670100085307000867010008670100086E
:1000E0006701000867010008670100086701000850
:1000F0006701000867010008670100086701000840
:10010000670100086701000867010008670100082F
:10011000670100086701000867010008670100081F
:10012000670100086701000867010008670100080F
:10013000DFF80CD003F06EF8004800471503000804
:1001400098020020704708488047084981F30888D2
:1001500007480047FEE7FEE7FEE7FEE7FEE7FEE7AB
:10016000FEE7FEE7FEE7FEE74501000898020020F3
:10017000310100081FB54FF4A06001F07FFC07209B
:100180008DF80C0003208DF80D008DF80E00012075
:100190008DF80F0003A801F076FC0121052001F085
:1001A0004EFE0220ADF8080003208DF80A0028203A
:1001B0008DF80B0002A9634800F0F4FF02216148AA
:1001C00001F09BF8022001F040FF0121002001F026
:1001D000EDF80220009000208DF804000C208DF82E
:1001E000050001208DF80600684601F0A2FE56A029
:1001F00003F032F81FBD1FB54FF4A06001F03EFCC4
:100200001C208DF80C0003208DF80D008DF80E00D9
:1002100001208DF80F0003A801F035FC01210846EC
:1002200001F01AFE4FF0804001F022FF42F2107000
:10023000ADF804004820ADF800000020ADF806003D
:10024000ADF8020069464FF0804001F07CFF44A009
:1002500003F002F81FBD1FB54FF4A06001F00EFCC3
:100260001D208DF80C0003208DF80D008DF80E0078
:1002700001208DF80F0003A801F005FC01210220E8
:1002800001F0EAFD3B4801F0F3FE44F62060ADF8D2
:1002900004004820ADF800000020ADF80600ADF8DD
:1002A00002006946334801F04EFF33A002F0D4FF4C
:1002B00037A002F0D1FF1FBD1FB54FF4A06001F0C1
:1002C000DDFB1E208DF80C0002208DF80D008DF84E
:1002D0000E0001208DF80F0003A801F0D4FB0121CE
:1002E000042001F0B9FD304801F0C2FE0A20ADF84B
:1002F00004004FF4E150ADF800000020ADF8060016
:10030000ADF802006946284801F01DFF27A002F061
:10031000A3FF1FBD02F0C5FC00F0BAFB00F0B8FA65
:1003200000F0D0FCFFF797FFFFF724FFFFF7C4FFB3
:1003300000F068FE23A002F08FFF24A002F08CFFE3
:1003400000BFFEE700080140CDE2B2BFD6D0B6CF75
:10035000C5E4D6C30909CDEAB3C90D0A00000000FF
:10036000D1D3CAB1C5E4D6C30909CDEAB3C90D0AD0
:100370000000000000040040D7D4B6AFD6D8B7A222
:10038000C5E4D6C30909CDEAB3C90D0A00000000CF
:10039000B7A2CBCDBCE0BFD8C5E4D6C30909CDEA2E
:1003A000B3C90D0A0000000000080040C3FCC1EE04
:1003B000C4A3CABDC6F4B6AF0909CDEAB3C90D0AD4
:1003C000000000005258210D0A0000002A2A2A2AA3
:1003D0002A2A2A2A2A2A2A2A2A2A2A2A2A2A2A2A7D
:1003E0002A2A2A2A2A2A2A2A2A2A2A2A2A2A0D0AAA
:1003F00000000000704700BFFEE700BFFEE700BF3F
:10040000FEE700BFFEE7704770477047704710B5C2
:10041000044600220121204602F015F90021204661
:1004200002F091FB0021204602F0F2F80121204663
:1004300002F0B9FB01221146204602F004F910BD7A
:1004400010B50121E34802F0B1FB58B10121E148A8
:1004500002F0BDFB0220E0490870DE48FFF7D7FF3D
:1004600000F081FB10BD10B504460022012120469A
:1004700002F0E9F80021204602F065FB0121204648
:1004800002F091FB01221146204602F0DCF810BD7B
:100490002DE9FF5F022001F0D8FDD7E0042303AA75
:1004A00000210F2000F09DFA039800F4C040B0F541
:1004B000005F46D120200290012302AA19460F2096
:1004C00000F049FA00F0F3FCC4480078012838D164
:1004D0000020C24908700123C14A19461E2000F0BD
:1004E0003AFA0123BE4A02211E2000F034FABDA0D0
:1004F00002F0B2FEBA49097801F01F0002F012FDC5
:1005000080460022BD4B02F09CFC04460D46B449D7
:100510000978491101EB4101C1F1120002F002FD1D
:10052000064622462B4602F0E7FB82460022B44BE9
:1005300002F087FC02460B46CDE90001B1A002F0B3
:100540008BFE042303AA00210F2000F04AFA03982F
:1005500000F0800080281ED1F0200290012302AA22
:1005600000210F2000F0F7F9AD480078012808D1EC
:100570000220AB490870AB48FFF775FF00F0A1FC03
:1005800009E0A7480078022805D10320A449087093
:10059000A448FFF768FF042303AA00210F2000F0FE
:1005A00020FA039800F48040B0F5804F4ED16F20C0
:1005B0000290012302AA19460F2000F0CCF90E2365
:1005C000994A0021112000F00CFA9748007800F0B9
:1005D0000700042819D192480078032836D19248A0
:1005E000807892490978884230D18E48FFF70FFF12
:1005F00000208B4908708E4908708EA002F02CFEF6
:1006000000F055FC00F0FEFC20E08748007800F088
:100610000700012810D18448407A382816D1804834
:10062000007898B900F0F8FC7F4880787F4908701E
:1006300001207B49087009E000F039FC012002909C
:10064000012302AA19460D2000F085F902217F48F6
:1006500000F039FE00283FF421AFBDE8FF9F10B540
:100660000121704802F0A2FA00285CD001216D48F7
:1006700002F0ADFA6A48007801280DD174A002F0AA
:10068000EBFD6848FFF7C3FE00206549087000F0E5
:100690000EFC00F0B7FC46E061480078022821D14A
:1006A000002201215F4801F0CEFF00215D4802F0E9
:1006B0004AFA00215B4801F0ABFF0121594802F0E2
:1006C00072FA01221146574801F0BDFF58480178DF
:1006D000491C65A002F0C0FD002051490870544932
:1006E000087020E04E48007803281CD1504800785C
:1006F000401C4F49087008460078012805DA00F0D0
:10070000E0FB0220464908700DE04648FFF77FFEF7
:1007100000204349087045480078401C4349087050
:1007200000204349087010BD10B504460022012185
:10073000204601F088FF0121204601F069FF0121D8
:10074000204602F030FA01221146204601F07BFFDC
:1007500010BD10B540F22551494801F058F9002864
:1007600036D01D480078C8B901201B4908701948C7
:10077000FFF7DAFF43480088C1B2434802780078A7
:1007800000F10100404B1870404881541846007831
:1007900040281DD100201946087019E00E48007845
:1007A000012815D10B48FFF75EFE36480088C2B21B
:1007B00035480178007800F10100334B1870334858
:1007C000425418460078402802D10020194608708B
:1007D00010BD0000000800400500002002000020BD
:1007E000010000200D0A2AB7A2C9E4B9A6C2CAC9ED
:1007F000E8D6C3B3C9B9A62A0D0A00000000E03F3D
:100800000000F03F5BB7A2C9E4B9A6C2CAC9E8D6E6
:10081000C3CEAA25332E316C6664425D0D0A0000FA
:1008200000000020000400403C00002008000020E0
:1008300003000020B6A8CEBBCAFDBEDD0909B6D4B0
:10084000B6CBD2D1BDD3CAD50D0A000000080140F5
:10085000B6A8CEBBD3A6B4F00909B7A2CBCDB3AC32
:10086000CAB10D0A00000000B6A8CEBBCAFDBEDDAD
:1008700025640909B7A2CBCDB3ACCAB10D0A0000FB
:100880000038014004380140040000204A000020E4
:1008900000B587B0012141F2050001F0D0FAE02057
:1008A000ADF8040003208DF8060018208DF807002D
:1008B00001A9704800F076FC0820ADF80400102073
:1008C0008DF8070001A96B4800F06CFC0020ADF822
:1008D00008004FF48270ADF80A000020ADF80C005B
:1008E000ADF80E00ADF810004FF40070ADF8120036
:1008F0002020ADF814000020ADF816000720ADF858
:10090000180002A95C4800F0A7FD01215A4800F038
:100910003EFE0821574800F0F0FC58A002F09CFC75
:1009200007B000BD10B5044600BF0221524800F0D8
:10093000B7FE0028F9D021784F4800F05EFE00BFD6
:1009400001214D4800F0ACFE0028F9D04A4800F0E3
:1009500056FEC0B210BD2DE9F84305460C461746B9
:1009600098460821434800F0CAFC34B945F080009D
:1009700000906846FFF7D6FF23E07F2C0BDC45F0A4
:10098000C00000906846FFF7CDFFE0B200906846D7
:10099000FFF7C8FF15E045F0C00000906846FFF77C
:1009A000C1FFE0B200909DF8000040F08000009090
:1009B0006846FFF7B7FFC4F3C71000906846FFF71B
:1009C000B1FF002605E038467F1CFFF7ABFF701C27
:1009D00086B24645F7DB0821264800F08EFCBDE8CC
:1009E000F883FFB581B00C4615461F460821214803
:1009F00000F085FC1CB901A8FFF794FF27E07F2CCD
:100A00000DDC9DF8040040F0400000906846FFF7C0
:100A100089FFE0B200906846FFF784FF17E09DF879
:100A2000040040F0400000906846FFF77BFFE0B212
:100A300000909DF8000040F0800000906846FFF7AD
:100A400071FFC4F3C71000906846FFF76BFFFF20EB
:100A50000090002606E06846FFF764FF28706D1CD2
:100A6000701C86B2BE42F6DB0821024800F045FC4D
:100A700005B0F0BD0008014000300140535049B3BB
:100A8000F5CABCBBAF0909CDEAB3C90D0A00000025
:100A900000B587B04FF4A06000F0F0FF25208DF87E
:100AA000040000208DF805008DF8060001208DF867
:100AB000070001A800F0E7FF012144F2050001F062
:100AC000BEF94FF40070ADF8180018208DF81B0027
:100AD00003208DF81A0006A9504800F063FB4FF47C
:100AE0008060ADF8180004208DF81B0006A94B4863
:100AF00000F058FB4FF4E13002900020ADF80C00FC
:100B0000ADF80E00ADF81000ADF814000C20ADF8F3
:100B1000120002A9424800F03EFE012240F2255197
:100B20003F4800F0B2FE40213D4800F06DFF01213A
:100B30003B4800F09EFE3BA002F08EFB43A002F07B
:100B40008BFB07B000BD70B504460D46E1B23448DA
:100B500000F0FAFE00BF4021314800F04CFF0128B0
:100B6000F9D1204670BD30B5A1B000253C480078D1
:100B7000022851D100BF3B480078052834D13A48BB
:100B80000078062830D1374800793649497900EB9A
:100B90000125344A9278334BDB7802EB032291B281
:100BA000304A5078ABB201AAFFF71BFF2D4880787E
:100BB0002C4BDB7800EB03222A4841782B462BA0F4
:100BC00002F04AFB002409E001A82844001B10F8A9
:100BD000011C33A002F040FB601C84B2AC42F3D392
:100BE00031A002F039FB12E01E48007802280BD138
:100BF0001D480078022807D11A4840782B49087010
:100C000001202B49087002E02AA002F025FB0020F9
:100C1000134908701449087021B030BD0008014024
:100C2000003801402A2A2A2A2A2A2A2A2A2A2A2A53
:100C30002ACFB5CDB3C5E4D6C32A2A2A2A2A2A2A1E
:100C40002A2A2A2A2A2A0D0A000000005553415256
:100C500054B3F5CABCBBAF0909CDEAB3C90D0A004C
:100C6000050000204A000020040000202AB7C3CE5F
:100C7000CAB5D8D6B7203078253032783A307825C2
:100C800030327820B7C3CECAB3A4B6C820256420BA
:100C90002A0D0A5BB7B5BBD8CAFDBEDD203078008F
:100CA00025303278000000005D0D0A0001000020B0
:100CB000020000200D0A2ACAE4C8EBB4EDCEF32AE4
:100CC0000D0A000010B588B055200790022307AA2E
:100CD00012212320FFF73FFE48F670000790022301
:100CE00007AA04212320FFF736FEDF4807900423DC
:100CF00007AA0C212320FFF72EFEDC4807900423CF
:100D000007AA08212720FFF726FE6D200790012360
:100D100007AA40F606012E20FFF71DFE41F20760EC
:100D20000790022307AA41F606012E20FFF713FEC3
:100D30004FF01F300790042307AA00211E20FFF761
:100D40000AFECB480790042307AA0C212820FFF7AE
:100D500002FEC0200790012307AA0B212A20FFF7DB
:100D6000FAFDA6200790012307AA0B212B20FFF7ED
:100D7000F2FD48F67410079042F21501079801EB56
:100D800000400790042307AA00210320FFF7E3FD9A
:100D9000B8480790042307AA00211846FFF7DBFD97
:100DA000B5480790042307AA00210E20FFF7D3FDC2
:100DB00003200790012307AA03211A20FFF7CBFD88
:100DC0005CE0042306AA00210F20FFF70AFEABA077
:100DD000069902F041FA069800F00200022825D197
:100DE0000790012307AA00210F20FFF7B4FD002080
:100DF000ADF804004FF48270ADF806000020ADF8A5
:100E00000800ADF80A00ADF80C004FF40070ADF822
:100E10000E000820ADF810000020ADF812000720E9
:100E2000ADF8140001A9984800F016FB042306AAA7
:100E300000210F20FFF7D5FD069800F40000B0F563
:100E4000000F07D180200790012307AA02210F205D
:100E5000FFF781FD042306AA00210F20FFF7C1FD43
:100E6000069800F00070B0F1007F07D102200790D3
:100E7000012307AA03210F20FFF76DFD02218348FC
:100E800000F021FA00289CD081A002F0E5F90024AE
:100E900009E04FF400400790022307AA06212D2005
:100EA000FFF759FD641C142CF3D308B010BD08B52E
:100EB0004020009001236A4600210D20FFF74BFDE2
:100EC00008BD10B57848007802284BD10423774A32
:100ED00000211720FFF785FD0423754A0021152006
:100EE000FFF77FFD0123734A04211720FFF779FDE7
:100EF0000123714A04211520FFF773FD6D48007826
:100F00006D490978884207D16848006868490968CE
:100F1000401A6A49086025E0674800786549097801
:100F200088420EDA6348007863490978401A4042E3
:100F30005E49096808445E490968401A5F490860CB
:100F400010E05D480078C0F1FF005A490978084474
:100F5000401C404255490968084455490968401AEF
:100F60005649086041205649087088204870554805
:100F700000788870892008717420C87020208871DA
:100F800014204871202008721520C8714B48006851
:100F900048724A480068000A4849086008460068E4
:100FA0004749887245480068000A44490860084675
:100FB00000684349C87241480068000A3F49086018
:100FC000084600683E490873FFF771FF0F203E494D
:100FD000087001230A4600210820FFF7BCFC0D23FE
:100FE000374A00210920FFF7B6FC822036490870F5
:100FF00001230A4600210D20FFF7ADFC3348FFF71F
:1010000032FA10BD08B50120009001236A46194646
:101010000D20FFF7A0FC08BD10B54420284908703A
:10102000002048702A4880788870FFF740FF05202C
:101030002549087001230A4600210820FFF78BFC90
:1010400003231F4A00210920FFF785FC82201E4947
:10105000087001230A4600210D20FFF77CFC1B4885
:10106000FFF762FB10BD000007A902252D001A3111
:10107000E03F1E00FD1004208260800030782530A3
:1010800038780D0A000000000030014000080140DF
:10109000B6A8CEBBD0BEC6ACC5E4D6C30909CDEA5E
:1010A000B3C90D0A00000000000000200C00002061
:1010B0001400002010000020180000201C00002058
:1010C0008A000020080000202000002000040040CA
:1010D0003C00002010B50446C549601A8C422FD050
:1010E00009DCC448201810D0B0F5806F16D0B0F5D8
:1010F000006F4AD11BE0B0F5806F2AD0B0F5006FC9
:1011000030D0B0F5406F40D135E00121042000F02F
:10111000B0FE0021042000F0ACFE37E001210820E1
:1011200000F0A7FE0021082000F0A3FE2EE0012120
:10113000102000F09EFE0021102000F09AFE25E015
:101140000121202000F095FE0021202000F091FEDA
:101150001CE00121402000F08CFE0021402000F026
:1011600088FE13E00121802000F083FE0021802012
:1011700000F07FFE0AE00121080200F07AFE002163
:101180004FF4807000F075FE00E000BF00BF10BD9E
:1011900010B50121084600F06CFE0021012000F08E
:1011A00068FE10BD2DE9F041024600250026002012
:1011B00000230024002791F803C00CF00F0591F8DC
:1011C00003C01CF0100F03D091F802C04CEA0505D3
:1011D000B1F800C01CF0FF0F31D0146800202BE0E4
:1011E0004FF0010C0CFA00F3B1F800C00CEA030652
:1011F0009E4220D183004FF00F0C0CFA03F7BC4342
:1012000005FA03FC4CEA040491F803C0BCF1280F72
:1012100006D14FF0010C0CFA00FCC2F814C00AE031
:1012200091F803C0BCF1480F05D14FF0010C0CFA46
:1012300000FCC2F810C0401C0828D1D31460B1F8DB
:1012400000C0BCF1FF0F34DD546800202EE000F137
:10125000080C4FF0010808FA0CF3B1F800C00CEAD2
:1012600003069E4221D183004FF00F0C0CFA03F7C6
:10127000BC4305FA03FC4CEA040491F803C0BCF13A
:10128000280F05D100F1080C08FA0CF8C2F81480F8
:1012900091F803C0BCF1480F07D100F1080C4FF0E2
:1012A000010808FA0CF8C2F81080401C0828CED3B8
:1012B0005460BDE8F0814FF6FF710180022181701A
:1012C0000421C17070470246002093680B4201D090
:1012D000012000E0002070470146886880B2704716
:1012E00002460020D3680B4201D0012000E000201C
:1012F00070470146C86880B270470161704741611C
:1013000070470AB1016100E041617047C1607047F8
:101310004FF480320A43826181618261826982690D
:10132000704702460020344B18684FF6807318400F
:1013300040EA02100843304B186070472F49C861DB
:101340007047F0B50A4600230024002100252A4EEC
:101350007168C0F3034583B200F44016B6F5401F30
:1013600008D121F07061244E766826F07066224F15
:101370007E6012E000F48016B6F5801F06D10326C9
:1013800006FA05F4A14341F0706106E0460D36010E
:1013900003FA06F6B14341F0706122B1460D360101
:1013A00003FA06F63143144E7160F0BD30B50022E9
:1013B0008B071C0F0F2303FA04F20F4B08338C101A
:1013C00053F8243093430C4C08348D1044F82530E6
:1013D00023468C1053F824308C07240F00FA04F4B1
:1013E0002343054C08348D1044F8253030BD0000EF
:1013F0000014014000F8FEBF000001400000204240
:1014000010B50446BE4820180FD0B0F5806F16D036
:10141000B0F5784F1DD10121080300F02AFD00210D
:101420004FF4805000F025FD14E00121880300F006
:101430002DFD00214FF4804000F028FD0AE001213D
:10144000C80300F023FD00214FF4004000F01EFD12
:1014500000E000BF00BF10BD10B50022028802F4FA
:1014600041520B884C8823438C882343CC882343E8
:101470000C8923434C8923438C892343CC89234300
:101480001A430280838B4FF2FF74234083830B8ABD
:10149000038210BD2DE9F04786B005460C464FF09B
:1014A000000902274FF000084FF0010A0026A88B20
:1014B0004FF240010840A88302202884B5F81C9010
:1014C0002089022801D100BF2FE0A08810B94FF079
:1014D000010A01E04FF0020A01A800F043FCE08895
:1014E000B0F5007F0AD1019800EB8000400021890F
:1014F0000902B0FBF1F0401D86B20BE04FEA4A1042
:1015000021894843019901EB81014900B1FBF0F0C9
:10151000401D86B20A20B6FBF0F606F00108A6EBE5
:101520000800C0F34F074FEA0828022F01DBFF2F06
:1015300002DD02274FF0000847EA0800E18808436F
:101540002884208840F4006061880843A18808430B
:101550006189084340EA0909A5F81C9006B0BDE876
:10156000F0870021018041808180C180018141811B
:101570008181C18107210182704700210180418062
:101580008180C1800221018100214181704721B108
:10159000028842F04002028004E002884FF6BF73E6
:1015A0001A400280704721B1828B42F480628283AC
:1015B00004E0828B4FF6FF331A408283704770B588
:1015C000002400230C110125A540ABB21AB1858877
:1015D0001D43858004E08588DE43B6B235408580B2
:1015E00070BD10B51AB183880B43838004E08388F3
:1015F000CC43A4B22340838010BD81817047014653
:1016000088897047A1F57E42FF3A04D0028842F4EF
:101610008072028004E002884FF6FF631A40028065
:10162000704721B1828842F00402828004E08288FF
:101630004FF6FB731A408280704702884FF2FF73A7
:101640001A40028002880A4302807047018841F4F0
:1016500080510180704721B1028842F4005202801B
:1016600004E002884DF6FF731A400280704702467C
:101670000020012901D0108B00E0908A70470146BC
:10168000088A7047B1F5804F04D1028842F4804245
:10169000028004E002884BF6FF731A400280704714
:1016A0000246002013890B4201D0012000E00020F7
:1016B0007047CA4302817047F0B5024600200024FB
:1016C0000023002501F00F070126BE40B4B20B1124
:1016D00001269E40B3B2968806EA03051689264283
:1016E00002D00DB1012000E00020F0BD10B50022B5
:1016F00001F00F040123A3409AB2D343038110BD2C
:1017000000C8FFBF10B50446D949601A8C422BD0DF
:1017100006DCD848201813D0B0F5806F38D119E016
:10172000B0F5806F2AD0B0F56C4F31D1012188031C
:1017300000F09FFB00214FF4804000F09AFB28E06E
:101740000121480400F0A2FB00214FF4003000F01A
:101750009DFB1EE00121880400F098FB00214FF45E
:10176000802000F093FB14E00121C80400F08EFB00
:1017700000214FF4002000F089FB0AE00121080558
:1017800000F084FB00214FF4801000F07FFB00E0AC
:1017900000BF00BF10BD2DE9F04786B005460E46DC
:1017A0000024A24600BF00BF00272F462C8A4CF61B
:1017B000FF700440F08804432C82AC894EF6F3108D
:1017C0000440B08831890843718908430443AC81DF
:1017D000AC8A4FF6FF400440B0890443AC8201A8B4
:1017E00000F0C0FAA448874202D1DDF810A001E061
:1017F000DDF80CA00AEBCA0000EB0A103168890082
:10180000B0FBF1F86420B8FBF0F00401200964217A
:1018100001FB1089322000EB0910B0FBF1F000F061
:101820000F0004432C8106B0BDE8F0874FF4165139
:10183000016000218180C18001810C214181002152
:101840008181704710B502460020108A4FF2FF03D5
:1018500018400B884C8823438C882343CC8823432F
:101860001843108210BD0021018041808180C18019
:10187000704721B1828942F40052828104E082895A
:101880004DF6FF731A4082817047F0B5034600247D
:101890000026002500201846C1F3421401F01F065F
:1018A000012707FA06F5012C01D10C3004E0022CC7
:1018B00001D1103000E014301AB107682F430760DF
:1018C00002E00768AF430760F0BD10B51AB1838A24
:1018D0000B43838204E0838ACC43A4B223408382F7
:1018E00010BD028A4FF6F0731A400282028A0A4340
:1018F0000282704782894FF2FF731A408281828987
:101900000A438281704721B1828942F002028281BA
:1019100004E082894FF6FD731A4082817047028A83
:101920004FF6DF731A400282028A0A43028270472E
:1019300021B1028A42F48042028204E0028A4BF61C
:10194000FF731A4002827047C1F308028280704719
:1019500001468888C0F308007047818941F0010181
:1019600081817047028BD2B20283028B42EA01224C
:1019700002837047028B02F47F420283028B0A4388
:101980000283704721B1828A42F02002828204E001
:10199000828A4FF6DF731A408282704721B1828AB1
:1019A00042F01002828204E0828A4FF6EF731A40FE
:1019B0008282704721B1828A42F00802828204E06A
:1019C000828A4FF6F7731A4082827047828A4FF6F6
:1019D000FB731A408282828A0A438282704721B155
:1019E000828A42F00202828204E0828A4FF6FD730C
:1019F0001A40828270470246002013880B4201D0B1
:101A0000012000E000207047CA430280704770B593
:101A100002460B460024002100250020C3F3421596
:101A200003F01F01012606FA01F1012D02D196896A
:101A3000314006E0022D02D1168A314001E0968A3B
:101A400031401C12012606FA04F41688344011B104
:101A50000CB1012000E0002070BD10B50022002371
:101A60000A1201249440A3B2DC43048010BD00009C
:101A7000004C004000BCFFBF003801403649014324
:101A8000364A1160704770B5002100230F22C478D8
:101A90004CB3324C246804F4E064C4F5E0644FEACB
:101AA0001421C1F1040322FA01F2447804FA03F18B
:101AB000847804EA020444EA01014FEA0111284C47
:101AC0000678A155047804F01F054FF0010404FACC
:101AD00005F405784FEA65154FF0E02606EB85051D
:101AE000C5F8004109E0047804F01F050124AC406A
:101AF0001C4D0678761145F8264070BD1A4A0A40FA
:101B000002431A4B1A60704741B1194A126842EAFF
:101B100000024FF0E023C3F8102D07E0144A1268CA
:101B200022EA00024FF0E023C3F8102D704704288A
:101B300008D14FF0E021096941F004014FF0E022A3
:101B4000116107E04FF0E021096921F004014FF035
:101B5000E0221161704700000000FA050CED00E082
:101B600000E400E080E100E080FFFF1F08ED00E0FE
:101B700010ED00E0DA48006840F00100D849086044
:101B800008464068D7490840D5494860084600687B
:101B9000D5490840D24908600846006820F48020F2
:101BA00008600846406820F4FE0048600020886015
:101BB0007047CB49096821F48031C94A1160114648
:101BC000096821F480211160B0F5803F03D0B0F5A1
:101BD000802F0ED106E0C249096841F48031C04A25
:101BE000116007E0BE49096841F4A021BC4A1160B8
:101BF00000E000BF00BF704710B50146002200237F
:101C000000204A11012A02D1B54C236806E0022ABD
:101C100002D1B34C236A01E0B14C636A01F01F02A8
:101C2000012494401C4201D0012000E0002010BD9E
:101C300070B500240025002600BF3120FFF7DCFF2F
:101C40000646641C16B9B4F5A06FF6D13120FFF733
:101C5000D3FF08B1012500E00025284670BD0146EC
:101C600000209F4A106820F0F80040EAC100106090
:101C700070479E490860704702460020984B58689C
:101C800020F47C1042EA01031843954B58607047DA
:101C900096490866704701460020914A506820F036
:101CA00003000843506070478D48406800F00C0006
:101CB0007047014600208A4A506820F0F00008432F
:101CC0005060704701460020854A506820F4E0606B
:101CD00008435060704701460020814A506820F454
:101CE000605040EAC1005060704729B17C4A527A86
:101CF00002437B4B5A7206E0794A527AC343DBB205
:101D00001A40774B5A72704779490860704701460C
:101D10000020734A506820F44040084350607047E8
:101D20000021744A11706E4A82F82010012802D0F6
:101D3000042808D103E001216E4A117004E0052156
:101D40006C4A117000E000BF00BF70476A4908602C
:101D500070476349096A0143614A116270476749E4
:101D60000860704730B500210022002400235C4D3C
:101D70006D6805F00C0121B1042905D0082923D193
:101D800005E05F4D056022E05D4D05601FE0544DAC
:101D90006D6805F47012022505EB9242504D6D6896
:101DA00005F480341CB9574D554305600BE04C4D8C
:101DB0006D6815F4003F03D0524D5543056002E0B5
:101DC0004F4D5543056002E04D4D056000BF00BF1B
:101DD000434D6D6805F0F00109094B4D6B5C0568DA
:101DE000DD4045603E4D6D6805F4E061090A464DF1
:101DF0006B5C4568DD408560394D6D6805F4605168
:101E0000C90A414D6B5C4568DD40C560344D6D6865
:101E100005F44041890B3D4D6B5CC568B5FBF3F59E
:101E2000056130BD29B12E4A526902432C4B5A61DB
:101E300004E02B4A52698243294B5A61704729B109
:101E4000274A92690243264B9A6104E0244A926928
:101E50008243234B9A61704729B1214AD2690243D8
:101E60001F4BDA6104E01E4AD26982431C4BDA61DF
:101E7000704729B11A4AD2680243194BDA6004E06C
:101E8000174AD2688243164BDA60704729B1144A68
:101E900012690243124B1A6104E0114A126982432B
:101EA0000F4B1A6170471A49086070470F49C864A0
:101EB00070470B49C87170470948406A40F080700C
:101EC00007494862704701460020054A92680A4265
:101ED00001D0012000E0002070470149887270475E
:101EE000001002400000FFF8FFFFF6FE0000424233
:101EF000D800424220100240800442423C04424248
:101F000000127A0000093D0021000020310000206D
:101F10004004424200204E4908604E49C1F8040482
:101F20004D49086001F1040108604C484C490860C3
:101F30007047817900294DD04649D1F800140268D4
:101F40009143444AC2F800141146D1F804140268BF
:101F50009143444A116001793E4A1144D1F800147A
:101F6000026841EA020102793A4B1A44C2F80014AD
:101F70001946D1F80814026821EA02011A46C2F88B
:101F800008141146D1F80C14026821EA0201364AFD
:101F900011604179102910D11946D1F8081402684E
:101FA00011431A46C2F808141146D1F80C140268FD
:101FB00011431A46C2F80C1418E04179254A11441D
:101FC000D1F80014026811434279224B1A44C2F836
:101FD00000140BE001791F4A1144D1F80014026883
:101FE000914302791B4B1A44C2F800147047002138
:101FF000016001710C2141710021817170471B4901
:10200000096841EA0001134AC2F8101470470146FA
:102010000020134A12680A4201D0012000E000208B
:1020200070470F4908607047014600200022084BA6
:102030001B6803EA0102074BD3F814340B4202D0A9
:102040000AB1012000E00020704705490860704790
:10205000000401400000014008040140FFFF0700A8
:1020600014040140040401400C0401401004014028
:1020700010B50446FB49601A8C4245D00CDCB4F123
:10208000804F1DD0F848201823D0B0F5806F29D09C
:10209000B0F5006F54D12EE0B0F5806F3DD0B0F5B3
:1020A0008E3F03D0B0F5923F4AD13FE00121C802F4
:1020B000FFF7DFFE00214FF40060FFF7DAFE40E09B
:1020C00001210846FFF7E2FE00210120FFF7DEFEB6
:1020D00037E001210220FFF7D9FE00210220FFF79F
:1020E000D5FE2EE001210420FFF7D0FE00210420C0
:1020F000FFF7CCFE25E001210820FFF7C7FE0021F5
:102100000820FFF7C3FE1CE001211020FFF7BEFEF0
:1021100000211020FFF7BAFE13E001212020FFF775
:10212000B5FE00212020FFF7B1FE0AE0012148039F
:10213000FFF79FFE00214FF40050FFF79AFE00E0EA
:1021400000BF00BF10BD028802F08F020280CA8863
:102150004B881A4303881A4302808A8882850A883A
:102160000285C24A904202D0C14A904201D10A7A05
:10217000028601228282704770B50024002200236B
:10218000058C4FF6FE7635400584028C8388048BDF
:102190004FF68F752C400D882C43751E2A400D89F3
:1021A0002A434D882A43CD888586B04DA84202D067
:1021B000AF4DA84213D14FF6F7752A404D892A43F7
:1021C0004FF6FB752A408D882A4347F6FF652B4062
:1021D00047F6FF552B408D892B43CD892B438380B8
:1021E0000483028470BD70B5002400220023058C96
:1021F0004FF6EF7635400584028C8388048B48F6D1
:10220000FF752C400D882D0644EA15444FF6DF7506
:102210002A400D892D0542EA15424D882D0542EAD6
:102220001542CD880587914DA84202D0904DA84215
:102230001BD14FF67F752A404D892D0542EA154284
:102240004FF6BF752A408D882D0542EA154247F6A4
:10225000FF352B4047F2FF752B408D89AD0443EAD3
:102260001543CD89AD0443EA15438380048302847A
:1022700070BD70B5002400220023058C4FF6FF6668
:1022800035400584028C8388848B4FF68F752C40F3
:102290000D882C434FF6FF552A400D892D0642EA42
:1022A00015424D882D0642EA1542CD8885876F4D2F
:1022B000A84202D06E4DA8421BD14FF2FF752A40B2
:1022C0004D892D0642EA15424FF6FF352A408D888A
:1022D0002D0642EA154246F6FF752B4045F6FF757E
:1022E0002B408D892D0543EA1543CD892D0543EA01
:1022F000154383808483028470BD70B5002300225F
:102300000024058C4EF6FF7635400584028C8488C7
:10231000838B48F6FF752B400D882D0643EA154345
:102320004DF6FF752A400D892D0742EA15424D886A
:102330002D0742EA1542CD88A0F840504B4DA842E7
:1023400002D04B4DA84205D1C4F30D048D89AD05D3
:1023500044EA154484808383028470BD828B4FF2EB
:10236000FF331A408283828B0B0642EA1342828338
:102370007047F0B50C461546002100220026078C58
:102380004EF6FF7C07EA0C070784818B028C270737
:102390003E0C40F6FF4739402F063F0C4FEA037CC6
:1023A00047EA1C4739434DF6FF773A4046F48057D9
:1023B0003A4381830284F0BD828B4FF6F3731A4057
:1023C0008283828B0A4382837047F0B50C461546A0
:1023D000002100220026078C4FF6FF6C07EA0C074D
:1023E0000784818B028C27063E0C4FF60C77394010
:1023F0001F0545EA174739434FF6FF573A4046F461
:1024000080773A4381830284F0BD028B4FF2FF3321
:102410001A400283028B0B0642EA13420283704782
:10242000F0B50C461546002100220026078C4FF619
:10243000EF7C07EA0C070784018B028C27053E0C12
:1024400040F6FF4739401F0741EA17412F0641EA8E
:1024500017414FF6DF773A4046F010073A430183C1
:102460000284F0BD0010004000FCFFBF002C0140C2
:1024700000340140028B4FF6F3731A400283028B43
:102480000A4302837047F0B50C461546002100222E
:10249000068C4FF6FE773E400684018B028C4FF689
:1024A0000C7631401E0545EA164631437E1E324009
:1024B00044F00106324301830284F0BD70B5054645
:1024C0000C46208850B92389A28861882846FFF7E6
:1024D000DAFFE1882846FFF7CDFF25E020880428B1
:1024E0000AD12389A28861882846FFF799FFE188ED
:1024F0002846FFF78AFF17E0208808280AD1238999
:10250000A28861882846FFF760FFE1882846FFF728
:1025100053FF09E02389A28861882846FFF729FF35
:10252000E1882846FFF71AFF70BD2DE9F041054606
:102530000C4600260127608808B9022600E0002624
:10254000A088012801D1022700E001272088A0B936
:102550002389A28861882846FFF795FFE1882846ED
:10256000FFF788FF23893A4631462846FFF758FF90
:10257000E1882846FFF749FF13E02389A288618894
:102580002846FFF74DFFE1882846FFF73EFF2389E5
:102590003A4631462846FFF776FFE1882846FFF79E
:1025A00069FFBDE8F0810A884B881A438B881A437B
:1025B000CB881A430B891A434B891A438B891A43D8
:1025C000A0F8442070474FF6FF7181800021018000
:1025D000C18041800172704700210180418081806B
:1025E000C180018141818181C181704700210180C9
:1025F0004180012181800021C1800181704700213B
:10260000018041808180C180018141818181704749
:1026100021B1028842F00102028004E0028840F207
:10262000FE331A400280704731B1B0F8442042F4C2
:102630000042A0F8442005E0B0F84420C2F30E02A6
:10264000A0F84420704710B51AB183890B438381E9
:1026500004E08389CC43A4B22340838110BD8182EE
:10266000704741EA0203A0F84830704710B51AB12C
:1026700083890B43838104E08389CC43A4B2234044
:10268000838110BD01894FF6F872114001817047B6
:102690000A46002101894FF68F73194011430181C9
:1026A000704730B504460D4629462046FFF7F0FF37
:1026B000208940F00700208130BD2DE9F04104461B
:1026C0000D4616461F46602D06D13B460122314677
:1026D0002046FFF7A5FE05E03B4601223146204695
:1026E000FFF7D1FE29462046FFF7D2FF208940F0B0
:1026F00007002081BDE8F08170B50C4600210189FA
:10270000C9B244EA02051E0645EA1645294301817D
:1027100070BD2DE9F04105460E4617469846002447
:1027200043463A4631462846FFF7E6FF2C894FF6E6
:10273000F8710C4044F007044FF68F710C4044F0E0
:1027400070042C81BDE8F081F0B504460D461646B4
:102750001F463B46324629462046FFF7CDFF2089DB
:1027600040F480402081F0BD0185828270470A4696
:102770000021018840F28F331940114301807047D6
:10278000F0B50C4615461E460021002200230189A3
:10279000028B038C4FF6F877394021434FF6FC4704
:1027A0003A4040F201173A434FF6DD773B40370598
:1027B00045EA17473B43018102830384F0BD0A4683
:1027C0000021018B4FF68F7319401143018370472D
:1027D0000A460021018B48F6FF731940130641EAAF
:1027E0001341018370470A460021818B4FF68F7396
:1027F00019401143818370470A460021818B48F6B6
:10280000FF731940130641EA13418183704721B1D8
:10281000028842F08002028004E0028840F27F33A6
:102820001A400280704721B1828842F004028280FF
:1028300004E082884FF6FB731A408280704721B112
:10284000828842F00802828004E082884FF6F773A3
:102850001A408280704721B1828842F00102828052
:1028600004E082884FF6FE731A40828070470A4661
:102870000021018B4FF6F773194011430183704714
:102880000A460021018B4FF2FF731940130641EAFB
:102890001341018370470A460021818B4FF6F7737D
:1028A00019401143818370470A460021818B4FF202
:1028B000FF731940130641EA1341818370470A46AA
:1028C0000021018B4FF6FB731940114301837047C0
:1028D0000A460021018B4FF6FF331940130641EAE7
:1028E0001341018370470A460021818B4FF6FB7329
:1028F00019401143818370470A460021818B4FF6AE
:10290000FF331940130641EA1341818370470A4699
:102910000021018B4FF67F731940114301837047EB
:102920000A460021018BC1F30E01130641EA13414F
:10293000018370470A460021818B4FF67F7319404F
:102940001143818370470A460021818BC1F30E0138
:10295000130641EA1341818370470A460021018C26
:102960004FF6FD7319401143018470470A46002158
:10297000018C4FF6F77319401143018470470A46E2
:102980000021018C4FF6DF731940130541EA134112
:10299000018470470A460021018C4FF67F7319406D
:1029A000130541EA1341018470470A460021018C56
:1029B0004FF6FF531940130641EA13410184704753
:1029C0000A460021018C4FF2FF731940130641EAB9
:1029D0001341018470470A460021018C4DF6FF73B4
:1029E0001940130741EA13410184704710B5048C64
:1029F00001238B40DB439BB223400384038C02FA08
:102A000001F4A4B22343038410BD10B5048C042345
:102A10008B40DB439BB223400384038C02FA01F416
:102A2000A4B22343038410BD30B5048C01238B4032
:102A3000DB439BB22340038409B1082918D100F17C
:102A4000180303EB61031B684FF68F74234000F1FA
:102A5000180404EB6104236000F1180303EB610325
:102A60001B68134300F1180404EB6104236021E0A8
:102A70000B1F9CB200F1180303EB64031B6848F6BC
:102A8000FF7423400C1FA5B200F1180404EB650489
:102A900023600B1F9CB200F1180303EB64031B6857
:102AA000140643EA14430C1FA5B200F1180404EB0A
:102AB0006504236030BD21B1028842F00202028029
:102AC00004E0028840F2FD331A400280704721B1D1
:102AD000028842F00402028004E0028840F2FB33E4
:102AE0001A400280704721B1828842F080028280C1
:102AF00004E082884FF67F731A4082807047028814
:102B000040F2F7331A40028002880A43028070477D
:102B100082884FF68F731A40828082880A438280AF
:102B2000704702894FF6F8731A40028102890A43FE
:102B30000281704702894FF67F731A400281028931
:102B40000A4302817047818470478185704781867E
:102B500070470187704781877047A0F84010704721
:102B60000288D2B2028002880A430280704701467E
:102B7000888E70470146088F70470146888F7047DE
:102B80000146B1F8400070470146888C7047014605
:102B9000088D704702460020138A0B4201D00120A5
:102BA00000E000207047CA430282704730B50246F9
:102BB000002000230024158A05EA0103958905EA0F
:102BC000010413B10CB1012000E0002030BDCA4364
:102BD0000282704700210020434A126842F480328A
:102BE000414B1A6000BF404A126802F40030491C91
:102BF00010B9B1F5A06FF6D13B4A126812F4003F4C
:102C000001D0012000E00020012843D1374A12689A
:102C100042F01002354B1A601A46126822F0030285
:102C20001A601A46126842F002021A602E4A52686E
:102C30002D4B5A601A4652685A601A46526842F43E
:102C400080625A601A46526822F47C125A601A4610
:102C5000526842F4E8125A601A46126842F08072D2
:102C60001A6000BF204A126812F0007FFAD01E4A94
:102C7000526822F003021C4B5A601A46526842F016
:102C800002025A6000BF184A526802F00C02082A79
:102C9000F9D101E000BFFEE7704710B5FFF79AFFDA
:102CA00010BD10B51048006840F001000E490860E2
:102CB000084640680E4908400B49486008460068CD
:102CC0000C490840084908600846006820F4802044
:102CD00008600846406820F4FE00486000208860D4
:102CE000FFF7DBFF10BD0000001002400020024093
:102CF0000000FFF8FFFFF6FE2DE9FE4F074681EAD0
:102D00000300C00F0E46019021F0004123F0004463
:102D1000B81AA14105D23846314617461E460B4621
:102D2000024623F00040104304D13846314603B038
:102D3000BDE8F08F350DC5F30A00C3F30A510290C8
:102D4000401A0090402867DAC3F3130040F4801B58
:102D50000198924620B10023D2EB030A63EB0B0BE0
:102D600000985946C0F14002504600F035F98046BF
:102D70000C4650465946009A00F03DF9C019714181
:102D8000EF1785EA11533B433FD0019A4AB3009AAB
:102D9000012A11DC0022801A61EB05514FF000433B
:102DA00003EA0555CDE90025801841F5801142461A
:102DB000234600F03FF9BAE72E050025401B61EBE2
:102DC0000601401941F58012001852412818A6F555
:102DD000001343EB020140EAD47018EB0808644189
:102DE00013E064084FEA38084FF0000244EAC07468
:102DF0004FEA0553801A61EB0301801841F58011F9
:102E000049084FEA3000801859414246234603B032
:102E1000BDE8F04F00F001B9019801224000002305
:102E2000D0EB020263EBE07301984FEAE074381ACA
:102E300066EB0401EBE783F000435DE781F00041BE
:102E40005AE72DE9FE4F81EA030421F0004504F022
:102E5000004423F000414FF0000A009450EA0503BB
:102E600002D052EA010304D10020014603B0BDE8BC
:102E7000F08FC1F30A53C5F30A542344A3F2F3338A
:102E80000193A0FB02B3C5F3130545F4801CC1F305
:102E9000130141F480180CFB023300FB083E810A49
:102EA000930A41EA8C5143EA8853A1FB03474FEA56
:102EB0009C2505FB03734FEA982601FB06373D0569
:102EC000260545EA1435BBEB06016EEB0503850EBE
:102ED000920E45EA8C1542EA8812A5FB0206261ED0
:102EE00067EB00070C0D44EA0334A61947EB1350B7
:102EF000C1F313044FF000031946E5FB02014FEA4A
:102F0000033545EA1455019B4FEA0432009CA3F1B6
:102F10000C03CDE900A445EA060502932B4600F018
:102F200089F8A3E70EB5C10F80EAE0700844CA072C
:102F3000002140F233438DE80E000A460B4600F0B4
:102F400079F803B000BD30B50B46014600202022C1
:102F5000012409E021FA02F59D4205D303FA02F5A6
:102F6000491B04FA02F52844151EA2F10102F1DC06
:102F700030BD2DE9F05F0546002092469B4688460D
:102F80000646814640241DE02846414647462246E3
:102F900000F052F9B0EB0A0052465B4671EB0B01B0
:102FA00010D310461946224600F016F82D1A67EB8A
:102FB00001084F4622460120002100F00DF817EBD2
:102FC00000094E41201EA4F10104DDDC48463146D3
:102FD0002A464346BDE8F09F202A04DB203A00FA47
:102FE00002F1002070479140C2F1200320FA03F360
:102FF000194390407047202A06DBCB17203A41FA4C
:1030000002F043EAE07306E041FA02F3D040C2F175
:103010002002914008431946704710B5002B08DA8A
:10302000401C41F1000192185B411A4301D120F08C
:10303000010010BD2DE9FF4D934611B1B1FA81F2A7
:1030400002E0B0FA80F220329246FFF7C5FF039A01
:103050000746884640EA0B0011435B46084304D10B
:103060003846414604B0BDE8F08D114653EA0200EF
:1030700016D0CAF14002584600F0DEF804460D466C
:103080004FF00106584652460399FFF7A5FF084343
:1030900000D10026344345EAE675274345EA08088F
:1030A0000E984FF00005A0EB0A014FEAD7200A3135
:1030B0004FEA47532A4640EA48504FEAD82402D5FF
:1030C00000200146CEE7281844EB0151DDE90C450C
:1030D000001904B06941BDE8F04D9EE72DE9F04DBF
:1030E00081EA030404F0004B21F0004714464FF03E
:1030F000000A23F0004150EA070220D054EA0102FE
:103100001DD0C1F30A550246C1F31300C7F30A5696
:10311000C7F3130340F4801143F48013A6EB0508B2
:10312000101BD64608F2FD3873EB010002D308F1FC
:10313000010801E092185B41B8F1000F03DA0020AA
:103140000146BDE8F08D00204FF480150646074685
:103150000EE0B2EB040C73EB010C04D3121B06431C
:1031600063EB01032F436D084FEA300092185B4177
:1031700050EA050CEDD152EA030012D082EA0400B5
:1031800083EA0105284303D100224FF0004308E001
:10319000101B8B4102D20122002302E06FF00102DA
:1031A00053101AEB060047EB085110EB0A0041EBF5
:1031B0000B01BDE8F04DFFF730BFC1F30A52C1F378
:1031C000130140F2FF3341F480119A4202DA0020E9
:1031D0000146704740F233439A42A2F2334202DC86
:1031E000524200F029B8FFF7F7BE000030B50029C1
:1031F00004DB4FF00044404264EB0101002B04DB90
:103200004FF00044524264EB0303994208BF9042DE
:1032100030BD0000064C074D06E0E06840F00103B9
:1032200094E8070098471034AC42F6D3FCF784FFCB
:10323000143B0008343B0008202A04DB203A21FA22
:1032400002F00021704721FA02F3D040C2F12002BF
:1032500091400843194670470FB4054B10B503A9B8
:10326000044A029800F0C2F810BC5DF814FB00009C
:10327000470B00083800002002E008C8121F08C1F0
:10328000002AFAD170477047002001E001C1121FE7
:10329000002AFBD1704700002DE9FF5FDDE9021035
:1032A000020DDDF838B001430FD10F9801244AA375
:1032B000012807D000980F9AC0E90031C0E9024206
:1032C000BDE8FF9F6FEA0B01F4E7A2F2FF3244F67C
:1032D0001050424315140F9801280FD0A5EB0B0096
:1032E000401C4FF000043D4EDFF8F490B0F1000AAE
:1032F000A046C0F1000717DB074615E0CBF1000040
:10330000EFE7F80707D02246334640464946FFF725
:1033100098FD804689462246334620463146FFF7CF
:1033200090FD04460E467F10002FEAD1DDE9020130
:10333000BAF1000F42464B4602DAFFF782FD01E088
:10334000FFF7CCFE04460E460022264BFFF74EFF49
:1033500003D84FF0FF30014607E00022224B204601
:103360003146FFF7C9FCFFF728FF102409E0002CC5
:103370000ADB0A220023FFF7FCFD019B30321A55BD
:10338000641E50EA0102F2D1641C019AC4F11103D7
:1033900014440F9A012A07D00122084301D15B454A
:1033A0000DDD00226D1C0DE0084303D1A3EB0B05DE
:1033B0006D1E09E000204FF0110B0F908BE701DA32
:1033C00000226D1E002A86D000980F99C0E90231B4
:1033D000C0E9004574E70000300000000000244010
:1033E0000000F03F0000F0430000E03F2DE9FF4FF8
:1033F00095B006469A460F460025F2E1252879D178
:103400000024761CFB4AA046012106943378203B19
:1034100001FA03F0104202D00443761CF6E730783C
:103420002A2811D06FF02F023078A0F1300109293D
:1034300015D8069944F0020401EB810102EB410129
:103440000844761C0690EFE701CF0690002803DAC7
:10345000404244F40054069044F00204761C307854
:103460002E2817D116F8010F44F004042A280ED094
:103470006FF02F023078A0F1300109290AD808EB4B
:10348000880102EB410100EB0108761CF2E757F8D6
:10349000048B761C30786C280FD006DC4C2817D0B3
:1034A00068280DD06A2814D104E0742810D07A2836
:1034B0000FD10DE044F400140AE044F4801401E05C
:1034C00044F440147178814202D1761C04F58014D2
:1034D000761C3078864666280BD013DC582872D0CC
:1034E00009DC002870D04528F6D04628F4D04728BB
:1034F0001AD195E118E0632831D0642874D065288A
:1035000012D18DE170286ED008DC6728F1D06928CF
:103510006AD06E280DD06F2806D1A8E0732827D076
:10352000752874D0782873D05246179990476D1C2F
:1035300055E1C4F30250022806D003280AD004281B
:1035400001CF0AD005604AE101CF4FEAE571C0E939
:10355000005144E101CF058041E105703FE101CF19
:103560008DF8000000208DF80100EB46012003E0FB
:1035700057F804BB4FF0FF3061074FF0000102D451
:103580000DE009F10101894641450FDA8145F8DB7B
:103590001BF809100029F4D108E009F1010189465E
:1035A0008142FADB1BF809100029F6D10698534630
:1035B000A0EB090080462146179A00F094FA2844AF
:1035C00000EB090506E047E00FE11BF8010B52464E
:1035D00017999047B9F10109F7D253462146404661
:1035E000179AF9E000E039E00A21C4F302524FF0E3
:1035F000000B0091022A04D001CFC117032A08D082
:1036000009E0FF1D27F00707F7E8020107E01CE0CB
:103610001DE000B2C117042A01D140B2C117002930
:1036200006DA0A460021404261EB02012D2202E047
:10363000220504D52B228DF80420012203E0E207A5
:1036400001D02022F7E7914653E00A2110E0102034
:103650004FF0000B00900EE0102109E010204FF019
:10366000000B44F004044FF00808009003E0082128
:103670004FF0000B0091C4F30252022A04D001CF94
:103680000021032A06D007E0FF1D27F00707F7E80F
:10369000020105E080B20021042A01D1C0B200215C
:1036A0004FF00009220724D5BEF1700F2AD0009BED
:1036B00083F0100353EA0B0309D150EA010206D04C
:1036C00030228DF804208DF805E002229146009BFF
:1036D00083F0080353EA0B030BD150EA010201D136
:1036E000620706D530228DF804204FF00109A8F1B9
:1036F000010841A2BEF1580F00D044A203920FAAC4
:1037000002920FE040228DF804200122DEE75B46A2
:10371000009AFFF72EFC039B9B5C029AA2F1010228
:103720000292137050EA0102F1D1029807A9A1EBAD
:10373000000000F1200B600702D524F4803401E082
:103740004FF00108002041465A46D84501DDA1EB63
:10375000020000EB0B01009006984944A0EB010029
:103760000690E00306D453462146179A069800F0C7
:10377000BAF90544002008E001A8524610F80800F4
:10378000179990476D1C08F1010080464845F3DB0E
:10379000E0030CD553462146179A069800F0A3F98A
:1037A000054404E030205246179990476D1C00995B
:1037B000481E00900029F5DC08E002980299524664
:1037C0000078491C0291179990476D1CBBF10001CC
:1037D000ABF1010BF1DC67E100F072F9054406F191
:1037E0000106307800287FF409AE19B02846BDE8FC
:1037F000F08F00000928010030313233343536377C
:1038000038394142434445460000000030313233EC
:10381000343536373839616263646566000000000C
:10382000600701D44FF0060807F1070727F00707E4
:10383000A0A1F7E8020C0CF000431A0007D19EA1EA
:10384000220504D49DA1E20701D1AFF244011291F7
:103850002CF0004C7146BEF1650F0ED007DC4529F7
:103860000BD0462920D0BEF1470F3DD13DE066295F
:103870001AD0BEF1670F37D137E00023112241463D
:10388000B8F1110F00DA4A1CCDE900230246634665
:1038900007A902A8FFF700FD012000904FF0000BE0
:1038A00008F10109039868E04FF000410F910123EE
:1038B000CDE900830246634607A902A8FFF7ECFCA6
:1038C000DDE904904FF0000B20B9039908F10100E5
:1038D00001EB0009B8EB090003D4C0F1FF3B08F18C
:1038E0000109A9EB0800009048E04146B8F1010F3A
:1038F00001DA0121884600231122B8F1110F00DC02
:103900000A46CDE900230246634607A902A8FFF74D
:10391000C3FC4FF0000BC14620070FD4049941456A
:1039200003DA894601E0A9F10109B9F1010F05DDCA
:103930000299A9F10100085C3028F4D003994145AF
:1039400002DA11F1040F03DA01200F91009015E063
:10395000002903DC8B44A9EB010005E0481C484525
:1039600003DD039800F1010081460399A1EB0B00F0
:1039700000F1010000904FF000400F90200705D4A7
:103980000098484502DB4FF0FF30009000210F986F
:103990000DF147088DF84710B0F1004F26D00220F6
:1039A00001902B2013900F9800280CDA40420F90C2
:1039B0002D20139007E00A210F98FFF7C4FA303149
:1039C0000F9008F8011D0199481E01900029F2DCB2
:1039D0000F980028EFD1A8F10102139911703178E6
:1039E00001F0200141F0450108F8021D10A9A1EBEA
:1039F000080000F1070001901298007800B1012042
:103A000000EB0901009801EBE07101980144069870
:103A1000A0EB0100A0F101000690E00306D453469C
:103A20002146179A069800F05EF80544129800782F
:103A300020B152461799904705F10105E00322D5C0
:103A400053462146179A069800F04DF805441AE0AF
:103A5000BBF1000F07DB0499594504DD029911F809
:103A60000B00179901E017993020524690470098B3
:103A70006D1C401E0BF1010B009004D12E2052460C
:103A8000179990476D1CB9F10001A9F10109DFDC1C
:103A900005E018F8010B5246179990476D1C0199E3
:103AA000481E01900029F4DC53462146179A0698D7
:103AB00092E600002D0000002B0000002000000016
:103AC0002DE9F0410446002517461E46880405D41A
:103AD00006E039462020B04705F10105641EF8D5FF
:103AE0002846BDE8F0812DE9F04104460025302745
:103AF00090461E46C80300D42027880405D506E05A
:103B000041463846B04705F10105641EF8D5284600
:103B1000BDE8F081343B0008000000203C000000BC
:103B200078320008703B00083C0000205C02000076
:103B300088320008001F00000000000000000000A4
:103B40000000000000000000000000000000000075
:103B50000000000000000000000102030401020355
:103B6000040607080902040608000000000000001F
:0400000508000131BD
:00000001FF
