:020000040800F2
:1000000000040020470100080D0200080F0200084C
:1000100013020008170200081B020008000000007D
:100020000000000000000000000000001F020008A7
:100030002102000800000000230200082502000839
:1000400067010008670100086701000867010008F0
:10005000670100086701000867010008270200081F
:1000600067010008670100086701000867010008D0
:1000700067010008670100086701000867010008C0
:1000800067010008670100086701000867010008B0
:1000900067010008670100086701000867010008A0
:1000A0006701000867010008670100086701000890
:1000B0006701000867010008670100086701000880
:1000C0006701000867010008670100086701000870
:1000D0006701000867010008670100086701000860
:1000E0006701000867010008670100086701000850
:1000F0006701000867010008670100086701000840
:10010000670100086701000867010008670100082F
:10011000670100086701000867010008670100081F
:10012000670100086701000867010008670100080F
:10013000DFF80CD001F0ACFA00480047F1010008EC
:1001400018020020704708488047084981F3088852
:1001500007480047FEE7FEE7FEE7FEE7FEE7FEE7AB
:10016000FEE7FEE7FEE7FEE7450100081802002073
:10017000310100081FB54FF4A06000F08FFF072089
:100180008DF80C0000208DF80D008DF80E00012078
:100190008DF80F0003A800F086FF0121052001F073
:1001A0005EF90220ADF8080003208DF80A0028202F
:1001B0008DF80B0002A9144800F004FB022112483C
:1001C00000F0ADFB022001F050FA0121002000F008
:1001D000FDFB0220009000208DF8040008208DF81F
:1001E000050001208DF80600684601F0B2F91FBD38
:1001F00000F078F800F068F9FFF7BCFF00F0B8F9FC
:1002000000F02DFA00BFFEE700080140704700BF74
:10021000FEE700BFFEE700BFFEE700BFFEE7704756
:1002200070477047704710B588B0022001F01DFA82
:10023000012306AA00210F2000F0FAF89DF818000B
:1002400000F08000802806D10690012306AA002134
:100250000F2000F0A7F8012306AA19460F2000F08E
:10026000E7F89DF8180000F02000202838D106900B
:10027000012306AA19460F2000F094F8052304AACA
:100280000021172000F0D4F8052302AA0021152030
:1002900000F0CEF8DDE90223DDE90410891A984167
:1002A00009D2DDE90432DDE90210C91A60EB02006F
:1002B000CDE9001010E04FF0FF33FF20DDE904121C
:1002C000591A60EB0200DDE902248B1860415A1CC8
:1002D00040F10000CDE900200521684600F02DF92D
:1002E00008B010BD00B587B0012141F2050001F052
:1002F000B6F8E020ADF8040003208DF806001820C1
:100300008DF8070001A96E4800F05CFA0820ADF8EE
:10031000040010208DF8070001A9694800F052FA86
:100320000020ADF808004FF48270ADF80A000020FC
:10033000ADF80C00ADF80E000120ADF81000400241
:10034000ADF812000820ADF814000020ADF816003A
:100350000720ADF8180002A95A4800F08DFB0121D2
:10036000584800F024FC0821554800F0D6FA07B0A0
:1003700000BD10B5044600BF0221524800F0A0FCA9
:100380000028F9D021784F4800F047FC00BF012138
:100390004C4800F095FC0028F9D04A4800F03FFC9A
:1003A000C0B210BD2DE9F84305460C4617469846E5
:1003B0000821434800F0B3FA34B945F080000090BA
:1003C0006846FFF7D6FF23E07F2C0BDC45F0C0002A
:1003D00000906846FFF7CDFFE0B200906846FFF757
:1003E000C8FF15E045F0C00000906846FFF7C1FF68
:1003F000E0B200909DF8000040F080000090684658
:10040000FFF7B7FFC4F3C71000906846FFF7B1FFCE
:10041000002605E038467F1CFFF7ABFF701C86B254
:100420004645F7DB0821264800F077FABDE8F88357
:10043000FFB581B00C4615461F460821204800F044
:100440006EFA1CB901A8FFF794FF27E07F2C0DDCA2
:100450009DF8040040F0400000906846FFF789FFD7
:10046000E0B200906846FFF784FF17E09DF80400B3
:1004700040F0400000906846FFF77BFFE0B200903C
:100480009DF8000040F0800000906846FFF771FF83
:10049000C4F3C71000906846FFF76BFF002606E024
:1004A00001A8FFF766FF05F8010B701C86B2BE427B
:1004B000F6DB0821024800F030FA05B0F0BD00007C
:1004C000000801400030014000B585B0012144F230
:1004D000050000F0C4FF4FF40070ADF810001820C4
:1004E0008DF8130003208DF8120004A91E4800F0B7
:1004F00069F94FF48060ADF8100004208DF8130006
:1005000004A9194800F05EF94FF4E1300090002092
:10051000ADF80400ADF80600ADF80800ADF80C0029
:100520000C20ADF80A006946104800F044FC012197
:100530000E4800F0AEFC05B000BD70B504460D4697
:1005400000260DE014F8011B084800F00DFD00BF67
:100550004021064800F05FFD0028F9D0701C86B2EB
:10056000AE42EFDB70BD00000008014000380140E2
:1005700008B548F67000009002236A460421242042
:10058000FFF710FF5548009004236A460C212420F1
:10059000FFF708FF5248009004236A4608212720ED
:1005A000FFF700FF0D20009001236A4640F6060188
:1005B0002E20FFF7F7FE41F20760009002236A4603
:1005C00041F606012E20FFF7EDFE46480090042379
:1005D0006A4600211E20FFF7E5FE434800900423F1
:1005E0006A460C212820FFF7DDFEC0200090012381
:1005F0006A460B212A20FFF7D5FEA6200090012392
:100600006A460B212B20FFF7CDFE48F674100090B0
:1006100042F21401009801EB0040009004236A4666
:1006200000210320FFF7BEFE3048009004236A46F5
:1006300000211846FFF7B6FE4FF4AA50009002239F
:100640006A4600212620FFF7ADFE42F2100000901E
:1006500002236A4600210E20FFF7A4FE08BD1FB545
:1006600026208DF8040022208DF80500204800780F
:100670008DF806001E480078401C1D49087089202E
:100680008DF8070074208DF8080020208DF80900EF
:1006900015208DF80A0020208DF80B0014208DF80D
:1006A0000C0038208DF80D000A2301AA0021092032
:1006B000FFF778FE8220009001236A4600210D207A
:1006C000FFF770FE1FBD08B50120009001236A46A8
:1006D00019460D20FFF766FE08BD000007A9022598
:1006E0002D001A314828080EE03F1E00FD01006071
:1006F0000000002010B50446C549601A8C422FD076
:1007000009DCC448201810D0B0F5806F16D0B0F5C1
:10071000006F4AD11BE0B0F5806F2AD0B0F5006FB2
:1007200030D0B0F5406F40D135E00121042000F019
:10073000B0FE0021042000F0ACFE37E001210820CB
:1007400000F0A7FE0021082000F0A3FE2EE001210A
:10075000102000F09EFE0021102000F09AFE25E0FF
:100760000121202000F095FE0021202000F091FEC4
:100770001CE00121402000F08CFE0021402000F010
:1007800088FE13E00121802000F083FE00218020FC
:1007900000F07FFE0AE00121080200F07AFE00214D
:1007A0004FF4807000F075FE00E000BF00BF10BD88
:1007B00010B50121084600F06CFE0021012000F078
:1007C00068FE10BD2DE9F0410246002500260020FC
:1007D00000230024002791F803C00CF00F0591F8C6
:1007E00003C01CF0100F03D091F802C04CEA0505BD
:1007F000B1F800C01CF0FF0F31D0146800202BE0CE
:100800004FF0010C0CFA00F3B1F800C00CEA03063B
:100810009E4220D183004FF00F0C0CFA03F7BC432B
:1008200005FA03FC4CEA040491F803C0BCF1280F5C
:1008300006D14FF0010C0CFA00FCC2F814C00AE01B
:1008400091F803C0BCF1480F05D14FF0010C0CFA30
:1008500000FCC2F810C0401C0828D1D31460B1F8C5
:1008600000C0BCF1FF0F34DD546800202EE000F121
:10087000080C4FF0010808FA0CF3B1F800C00CEABC
:1008800003069E4221D183004FF00F0C0CFA03F7B0
:10089000BC4305FA03FC4CEA040491F803C0BCF124
:1008A000280F05D100F1080C08FA0CF8C2F81480E2
:1008B00091F803C0BCF1480F07D100F1080C4FF0CC
:1008C000010808FA0CF8C2F81080401C0828CED3A2
:1008D0005460BDE8F0814FF6FF7101800221817004
:1008E0000421C17070470246002093680B4201D07A
:1008F000012000E0002070470146886880B2704700
:1009000002460020D3680B4201D0012000E0002005
:1009100070470146C86880B2704701617047416105
:1009200070470AB1016100E041617047C1607047E2
:100930004FF480320A4382618161826182698269F7
:10094000704702460020344B18684FF680731840F9
:1009500040EA02100843304B186070472F49C861C5
:100960007047F0B50A4600230024002100252A4ED6
:100970007168C0F3034583B200F44016B6F5401F1A
:1009800008D121F07061244E766826F07066224FFF
:100990007E6012E000F48016B6F5801F06D10326B3
:1009A00006FA05F4A14341F0706106E0460D3601F8
:1009B00003FA06F6B14341F0706122B1460D3601EB
:1009C00003FA06F63143144E7160F0BD30B50022D3
:1009D0008B071C0F0F2303FA04F20F4B08338C1004
:1009E00053F8243093430C4C08348D1044F82530D0
:1009F00023468C1053F824308C07240F00FA04F49B
:100A00002343054C08348D1044F8253030BD0000D8
:100A10000014014000F8FEBF000001400000204229
:100A200010B50446BE4820180FD0B0F5806F16D020
:100A3000B0F5784F1DD10121080300F02AFD0021F7
:100A40004FF4805000F025FD14E00121880300F0F0
:100A50002DFD00214FF4804000F028FD0AE0012127
:100A6000C80300F023FD00214FF4004000F01EFDFC
:100A700000E000BF00BF10BD10B50022028802F4E4
:100A800041520B884C8823438C882343CC882343D2
:100A90000C8923434C8923438C892343CC892343EA
:100AA0001A430280838B4FF2FF74234083830B8AA7
:100AB000038210BD2DE9F04786B005460C464FF085
:100AC000000902274FF000084FF0010A0026A88B0A
:100AD0004FF240010840A88302202884B5F81C90FA
:100AE0002089022801D100BF2FE0A08810B94FF063
:100AF000010A01E04FF0020A01A800F043FCE0887F
:100B0000B0F5007F0AD1019800EB800040002189F8
:100B10000902B0FBF1F0401D86B20BE04FEA4A102B
:100B200021894843019901EB81014900B1FBF0F0B3
:100B3000401D86B20A20B6FBF0F606F00108A6EBCF
:100B40000800C0F34F074FEA0828022F01DBFF2FF0
:100B500002DD02274FF0000847EA0800E188084359
:100B60002884208840F4006061880843A1880843F5
:100B70006189084340EA0909A5F81C9006B0BDE860
:100B8000F0870021018041808180C1800181418105
:100B90008181C1810721018270470021018041804C
:100BA0008180C1800221018100214181704721B1F2
:100BB000028842F04002028004E002884FF6BF73D0
:100BC0001A400280704721B1828B42F48062828396
:100BD00004E0828B4FF6FF331A408283704770B572
:100BE000002400230C110125A540ABB21AB1858861
:100BF0001D43858004E08588DE43B6B2354085809C
:100C000070BD10B51AB183880B43838004E08388DC
:100C1000CC43A4B22340838010BD8181704701463C
:100C200088897047A1F57E42FF3A04D0028842F4D9
:100C30008072028004E002884FF6FF631A4002804F
:100C4000704721B1828842F00402828004E08288E9
:100C50004FF6FB731A408280704702884FF2FF7391
:100C60001A40028002880A4302807047018841F4DA
:100C700080510180704721B1028842F40052028005
:100C800004E002884DF6FF731A4002807047024666
:100C90000020012901D0108B00E0908A70470146A6
:100CA000088A7047B1F5804F04D1028842F480422F
:100CB000028004E002884BF6FF731A4002807047FE
:100CC0000246002013890B4201D0012000E00020E1
:100CD0007047CA4302817047F0B5024600200024E5
:100CE0000023002501F00F070126BE40B4B20B110E
:100CF00001269E40B3B2968806EA0305168926426D
:100D000002D00DB1012000E00020F0BD10B500229E
:100D100001F00F040123A3409AB2D343038110BD15
:100D200000C8FFBF10B50446D949601A8C422BD0C9
:100D300006DCD848201813D0B0F5806F38D119E000
:100D4000B0F5806F2AD0B0F56C4F31D10121880306
:100D500000F09FFB00214FF4804000F09AFB28E058
:100D60000121480400F0A2FB00214FF4003000F004
:100D70009DFB1EE00121880400F098FB00214FF448
:100D8000802000F093FB14E00121C80400F08EFBEA
:100D900000214FF4002000F089FB0AE00121080542
:100DA00000F084FB00214FF4801000F07FFB00E096
:100DB00000BF00BF10BD2DE9F04786B005460E46C6
:100DC0000024A24600BF00BF00272F462C8A4CF605
:100DD000FF700440F08804432C82AC894EF6F31077
:100DE0000440B08831890843718908430443AC81C9
:100DF000AC8A4FF6FF400440B0890443AC8201A89E
:100E000000F0C0FAA448874202D1DDF810A001E04A
:100E1000DDF80CA00AEBCA0000EB0A10316889006B
:100E2000B0FBF1F86420B8FBF0F004012009642164
:100E300001FB1089322000EB0910B0FBF1F000F04B
:100E40000F0004432C8106B0BDE8F0874FF4165123
:100E5000016000218180C18001810C21418100213C
:100E60008181704710B502460020108A4FF2FF03BF
:100E700018400B884C8823438C882343CC88234319
:100E80001843108210BD0021018041808180C18003
:100E9000704721B1828942F40052828104E0828944
:100EA0004DF6FF731A4082817047F0B50346002467
:100EB0000026002500201846C1F3421401F01F0649
:100EC000012707FA06F5012C01D10C3004E0022CB1
:100ED00001D1103000E014301AB107682F430760C9
:100EE00002E00768AF430760F0BD10B51AB1838A0E
:100EF0000B43838204E0838ACC43A4B223408382E1
:100F000010BD028A4FF6F0731A400282028A0A4329
:100F10000282704782894FF2FF731A408281828970
:100F20000A438281704721B1828942F002028281A4
:100F300004E082894FF6FD731A4082817047028A6D
:100F40004FF6DF731A400282028A0A430282704718
:100F500021B1028A42F48042028204E0028A4BF606
:100F6000FF731A4002827047C1F308028280704703
:100F700001468888C0F308007047818941F001016B
:100F800081817047028BD2B20283028B42EA012236
:100F900002837047028B02F47F420283028B0A4372
:100FA0000283704721B1828A42F02002828204E0EB
:100FB000828A4FF6DF731A408282704721B1828A9B
:100FC00042F01002828204E0828A4FF6EF731A40E8
:100FD0008282704721B1828A42F00802828204E054
:100FE000828A4FF6F7731A4082827047828A4FF6E0
:100FF000FB731A408282828A0A438282704721B13F
:10100000828A42F00202828204E0828A4FF6FD73F5
:101010001A40828270470246002013880B4201D09A
:10102000012000E000207047CA430280704770B57D
:1010300002460B460024002100250020C3F3421580
:1010400003F01F01012606FA01F1012D02D1968954
:10105000314006E0022D02D1168A314001E0968A25
:1010600031401C12012606FA04F41688344011B1EE
:101070000CB1012000E0002070BD10B5002200235B
:101080000A1201249440A3B2DC43048010BD000086
:10109000004C004000BCFFBF00380140364901430E
:1010A000364A1160704770B5002100230F22C478C2
:1010B0004CB3324C246804F4E064C4F5E0644FEAB5
:1010C0001421C1F1040322FA01F2447804FA03F175
:1010D000847804EA020444EA01014FEA0111284C31
:1010E0000678A155047804F01F054FF0010404FAB6
:1010F00005F405784FEA65154FF0E02606EB850507
:10110000C5F8004109E0047804F01F050124AC4053
:101110001C4D0678761145F8264070BD1A4A0A40E3
:1011200002431A4B1A60704741B1194A126842EAE9
:1011300000024FF0E023C3F8102D07E0144A1268B4
:1011400022EA00024FF0E023C3F8102D7047042874
:1011500008D14FF0E021096941F004014FF0E0228D
:10116000116107E04FF0E021096921F004014FF01F
:10117000E0221161704700000000FA050CED00E06C
:1011800000E400E080E100E080FFFF1F08ED00E0E8
:1011900010ED00E0DA48006840F00100D84908602E
:1011A00008464068D7490840D54948600846006865
:1011B000D5490840D24908600846006820F48020DC
:1011C00008600846406820F4FE00486000208860FF
:1011D0007047CB49096821F48031C94A1160114632
:1011E000096821F480211160B0F5803F03D0B0F58B
:1011F000802F0ED106E0C249096841F48031C04A0F
:10120000116007E0BE49096841F4A021BC4A1160A1
:1012100000E000BF00BF704710B501460022002368
:1012200000204A11012A02D1B54C236806E0022AA7
:1012300002D1B34C236A01E0B14C636A01F01F0292
:10124000012494401C4201D0012000E0002010BD88
:1012500070B500240025002600BF3120FFF7DCFF19
:101260000646641C16B9B4F5A06FF6D13120FFF71D
:10127000D3FF08B1012500E00025284670BD0146D6
:1012800000209F4A106820F0F80040EAC10010607A
:1012900070479E490860704702460020984B586886
:1012A00020F47C1042EA01031843954B58607047C4
:1012B00096490866704701460020914A506820F020
:1012C00003000843506070478D48406800F00C00F0
:1012D0007047014600208A4A506820F0F000084319
:1012E0005060704701460020854A506820F4E06055
:1012F00008435060704701460020814A506820F43E
:10130000605040EAC1005060704729B17C4A527A6F
:1013100002437B4B5A7206E0794A527AC343DBB2EE
:101320001A40774B5A7270477949086070470146F6
:101330000020734A506820F44040084350607047D2
:101340000021744A11706E4A82F82010012802D0E0
:10135000042808D103E001216E4A117004E0052140
:101360006C4A117000E000BF00BF70476A49086016
:1013700070476349096A0143614A116270476749CE
:101380000860704730B500210022002400235C4D26
:101390006D6805F00C0121B1042905D0082923D17D
:1013A00005E05F4D056022E05D4D05601FE0544D96
:1013B0006D6805F47012022505EB9242504D6D6880
:1013C00005F480341CB9574D554305600BE04C4D76
:1013D0006D6815F4003F03D0524D5543056002E09F
:1013E0004F4D5543056002E04D4D056000BF00BF05
:1013F000434D6D6805F0F00109094B4D6B5C0568C4
:10140000DD4045603E4D6D6805F4E061090A464DDA
:101410006B5C4568DD408560394D6D6805F4605151
:10142000C90A414D6B5C4568DD40C560344D6D684F
:1014300005F44041890B3D4D6B5CC568B5FBF3F588
:10144000056130BD29B12E4A526902432C4B5A61C5
:1014500004E02B4A52698243294B5A61704729B1F3
:10146000274A92690243264B9A6104E0244A926912
:101470008243234B9A61704729B1214AD2690243C2
:101480001F4BDA6104E01E4AD26982431C4BDA61C9
:10149000704729B11A4AD2680243194BDA6004E056
:1014A000174AD2688243164BDA60704729B1144A52
:1014B00012690243124B1A6104E0114A1269824315
:1014C0000F4B1A6170471A49086070470F49C8648A
:1014D00070470B49C87170470948406A40F08070F6
:1014E00007494862704701460020054A92680A424F
:1014F00001D0012000E00020704701498872704748
:10150000001002400000FFF8FFFFF6FE000042421C
:10151000D800424220100240800442423C04424231
:1015200000127A0000093D00010000201100002097
:101530004004424200204E4908604E49C1F804046C
:101540004D49086001F1040108604C484C490860AD
:101550007047817900294DD04649D1F800140268BE
:101560009143444AC2F800141146D1F804140268A9
:101570009143444A116001793E4A1144D1F8001464
:10158000026841EA020102793A4B1A44C2F8001497
:101590001946D1F80814026821EA02011A46C2F875
:1015A00008141146D1F80C14026821EA0201364AE7
:1015B00011604179102910D11946D1F80814026838
:1015C00011431A46C2F808141146D1F80C140268E7
:1015D00011431A46C2F80C1418E04179254A114407
:1015E000D1F80014026811434279224B1A44C2F820
:1015F00000140BE001791F4A1144D1F8001402686D
:10160000914302791B4B1A44C2F800147047002121
:10161000016001710C2141710021817170471B49EA
:10162000096841EA0001134AC2F8101470470146E4
:101630000020134A12680A4201D0012000E0002075
:1016400070470F4908607047014600200022084B90
:101650001B6803EA0102074BD3F814340B4202D093
:101660000AB1012000E0002070470549086070477A
:10167000000401400000014008040140FFFF070092
:1016800014040140040401400C0401401004014012
:10169000064C074D06E0E06840F0010394E80700BF
:1016A00098471034AC42F6D3FEF746FDD416000836
:1016B000F416000802E008C8121F08C1002AFAD177
:1016C00070477047002001E001C1121F002AFBD1C2
:1016D00070470000F4160008000000201800000009
:1016E000B41600080C1700081800002000020000C3
:1016F000C4160008000000000001020304010203F8
:0C170000040607080902040608000000A7
:0400000508000131BD
:00000001FF
